:100000000C942A000C9447000C9447000C94470071
:100010000C9447000C9447000C9447000C94470044
:100020000C9447000C9447000C944E060C94470027
:100030000C9447000C9447000C9447000C94470024
:100040000C9447000C9447000C9447000C94470014
:100050000C94470011241FBECFE5D8E0DEBFCDBF12
:1000600010E0A0E6B0E0EAE7FDE002C005900D92E6
:10007000A437B107D9F710E0A4E7B0E001C01D92A2
:10008000A937B107E1F70E9491050C94BB060C94C7
:100090000000DF93CF93CDB7DEB76B970FB6F89420
:1000A000DEBF0FBECDBF8D8B6E8BCE010196988FBC
:1000B0008F8BE0E6F0E0FA8FE98FF4E1FB8FE98DBA
:1000C000FA8D0080898D9A8D01969A8F898FEF899C
:1000D000F88D00828F89988D0196988F8F8B9B8DDC
:1000E00091509B8FEB8DEE2351F78D89882F90E0F7
:1000F0009C01220F331FCE010196FC01E20FF31F7A
:1001000080819181982F90958E89692F0E94F503A7
:100110006B960FB6F894DEBF0FBECDBFCF91DF91C7
:100120000895DF93CF930F92CDB7DEB7898389818E
:100130006FEF0E94F5030F90CF91DF910895DF9349
:10014000CF93CDB7DEB7EAE3F0E08FEF8083E7E34C
:10015000F0E08FEF8083E4E3F0E08FEF8083E1E372
:10016000F0E08FEF8083EBE3F0E01082E8E3F0E073
:100170001082E5E3F0E01082E2E3F0E01082CF913C
:10018000DF910895DF93CF9300D000D00F92CDB7C9
:10019000DEB78A836B8319828B81883010F081E00F
:1001A0008983A0E5B0E0E0E5F0E080818B7F8C936F
:1001B0008A81282F30E03D832C838C819D81823081
:1001C000910551F12C813D812330310534F48C812E
:1001D0009D818130910561F05BC02C813D81233090
:1001E000310571F18C819D8184309105E9F150C018
:1001F000ABE3B0E0EBE3F0E08081482F8B81282F68
:1002000030E081E090E0022E02C0880F991F0A942E
:10021000E2F7842B8C933EC0A8E3B0E0E8E3F0E083
:100220008081482F8B81282F30E081E090E0022EE2
:1002300002C0880F991F0A94E2F7842B8C932AC07E
:10024000A5E3B0E0E5E3F0E08081482F8B81282F23
:1002500030E081E090E0022E02C0880F991F0A94DE
:10026000E2F7842B8C9316C0A2E3B0E0E2E3F0E067
:100270008081482F8B81282F30E081E090E0022E92
:1002800002C0880F991F0A94E2F7842B8C9302C056
:1002900081E0898389810F900F900F900F900F90CC
:1002A000CF91DF910895DF93CF93CDB7DEB7279736
:1002B0000FB6F894DEBF0FBECDBF89836A834B8330
:1002C0008B81882309F075C08981282F30E03F8316
:1002D0002E838E819F818230910561F12E813F8135
:1002E0002330310534F48E819F818130910569F08E
:1002F000D3C02E813F812330310589F18E819F81CA
:100300008430910509F440C0C7C0AAE3B0E0EAE335
:10031000F0E08081482F8A81282F30E081E090E052
:10032000022E02C0880F991F0A94E2F78095842359
:100330008C93B2C0A7E3B0E0E7E3F0E08081482F00
:100340008A81282F30E081E090E0022E02C0880FE1
:10035000991F0A94E2F7809584238C939DC0A4E3AF
:10036000B0E0E4E3F0E08081482F8A81282F30E07C
:1003700081E090E0022E02C0880F991F0A94E2F7F4
:10038000809584238C9388C0A1E3B0E0E1E3F0E0A2
:100390008081482F8A81282F30E081E090E0022E72
:1003A00002C0880F991F0A94E2F7809584238C93EA
:1003B00073C08B81813009F06FC08981282F30E0B4
:1003C0003D832C838C819D818230910551F12C815C
:1003D0003D812330310534F48C819D81813091053C
:1003E00061F05AC02C813D812330310571F18C813F
:1003F0009D8184309105E9F14FC0AAE3B0E0EAE3C2
:10040000F0E08081482F8A81282F30E081E090E061
:10041000022E02C0880F991F0A94E2F7842B8C9356
:100420003BC0A7E3B0E0E7E3F0E08081482F8A819A
:10043000282F30E081E090E0022E02C0880F991F43
:100440000A94E2F7842B8C9327C0A4E3B0E0E4E3A2
:10045000F0E08081482F8A81282F30E081E090E011
:10046000022E02C0880F991F0A94E2F7842B8C9306
:1004700013C0A1E3B0E0E1E3F0E08081482F8A817E
:10048000282F30E081E090E0022E02C0880F991FF3
:100490000A94E2F7842B8C9327960FB6F894DEBF6C
:1004A0000FBECDBFCF91DF910895DF93CF93CDB72E
:1004B000DEB728970FB6F894DEBF0FBECDBF8A8394
:1004C0006B834C8319828B81883010F081E08983A3
:1004D0008C81882309F078C08A81282F30E0388702
:1004E0002F838F8198858230910561F12F81388526
:1004F0002330310534F48F8198858130910569F07E
:1005000060C02F8138852330310589F18F8198852E
:100510008430910509F440C054C0ABE3B0E0EBE394
:10052000F0E08081482F8B81282F30E081E090E03F
:10053000022E02C0880F991F0A94E2F78095842347
:100540008C93B8C0A8E3B0E0E8E3F0E08081482FE6
:100550008B81282F30E081E090E0022E02C0880FCE
:10056000991F0A94E2F7809584238C93A3C0A5E396
:10057000B0E0E5E3F0E08081482F8B81282F30E068
:1005800081E090E0022E02C0880F991F0A94E2F7E2
:10059000809584238C938EC0A2E3B0E0E2E3F0E088
:1005A0008081482F8B81282F30E081E090E0022E5F
:1005B00002C0880F991F0A94E2F7809584238C93D8
:1005C00079C081E0898376C08C81813009F072C066
:1005D0008A81282F30E03E832D838D819E81823059
:1005E000910551F12D813E812330310534F48D8107
:1005F0009E818130910561F05BC02D813E81233069
:10060000310571F18D819E8184309105E9F150C0F1
:10061000ABE3B0E0EBE3F0E08081482F8B81282F43
:1006200030E081E090E0022E02C0880F991F0A940A
:10063000E2F7842B8C933EC0A8E3B0E0E8E3F0E05F
:100640008081482F8B81282F30E081E090E0022EBE
:1006500002C0880F991F0A94E2F7842B8C932AC05A
:10066000A5E3B0E0E5E3F0E08081482F8B81282FFF
:1006700030E081E090E0022E02C0880F991F0A94BA
:10068000E2F7842B8C9316C0A2E3B0E0E2E3F0E043
:100690008081482F8B81282F30E081E090E0022E6E
:1006A00002C0880F991F0A94E2F7842B8C9302C032
:1006B00081E08983898128960FB6F894DEBF0FBE4A
:1006C000CDBFCF91DF910895DF93CF93CDB7DEB744
:1006D00027970FB6F894DEBF0FBECDBF8A836B831A
:1006E0005D834C8319828B81883010F081E089838F
:1006F0008A81282F30E03F832E834E815F814230F4
:10070000510559F18E819F818330910534F42E81FA
:100710003F812130310569F05CC04E815F814330FB
:10072000510579F18E819F818430910509F43DC096
:1007300050C0E9E3F0E08081282F30E08B81882FE2
:1007400090E0A90102C0559547958A95E2F7CA0144
:100750008170EC81FD8180833EC0E6E3F0E0808122
:10076000282F30E08B81882F90E0A90102C0559599
:1007700047958A95E2F7CA018170EC81FD818083FB
:100780002AC0E3E3F0E08081282F30E08B81882FBE
:1007900090E0A90102C0559547958A95E2F7CA01F4
:1007A0008170EC81FD81808316C0E0E3F0E0808100
:1007B000282F30E08B81882F90E0A90102C0559549
:1007C00047958A95E2F7CA018170EC81FD818083AB
:1007D00002C081E08983898127960FB6F894DEBF35
:1007E0000FBECDBFCF91DF910895DF93CF9300D09F
:1007F00000D00F92CDB7DEB78A836B8319828A81CE
:10080000282F30E03D832C838C819D81823091059F
:10081000D9F02C813D812330310534F48C819D81C8
:100820008130910561F01FC02C813D81233031055D
:1008300081F08C819D818430910581F014C0EBE3BF
:10084000F0E08B81808311C0E8E3F0E08B8180834E
:100850000CC0E5E3F0E08B81808307C0E2E3F0E0C9
:100860008B81808302C081E0898389810F900F9002
:100870000F900F900F90CF91DF910895DF93CF935A
:1008800000D000D000D0CDB7DEB78A837C836B83E5
:1008900019828A81282F30E03E832D838D819E81AD
:1008A00082309105E9F02D813E812330310534F409
:1008B0008D819E818130910561F027C02D813E811F
:1008C00023303105A1F08D819E8184309105B1F0F6
:1008D0001CC0E9E3F0E08081EB81FC81808317C0DC
:1008E000E6E3F0E08081EB81FC81808310C0E3E3EC
:1008F000F0E08081EB81FC81808309C0E0E3F0E0DF
:100900008081EB81FC81808302C081E089838981C1
:1009100026960FB6F894DEBF0FBECDBFCF91DF9104
:100920000895DF93CF9300D000D00F92CDB7DEB7FC
:100930008A836B8319828A81282F30E03D832C8340
:100940008C819D818230910551F12C813D81233034
:10095000310534F48C819D818130910561F05BC05B
:100960002C813D812330310571F18C819D81843052
:100970009105E9F150C0ABE3B0E0EBE3F0E080813A
:10098000482F8B81282F30E081E090E0022E02C0BA
:10099000880F991F0A94E2F784278C933EC0A8E33E
:1009A000B0E0E8E3F0E08081482F8B81282F30E031
:1009B00081E090E0022E02C0880F991F0A94E2F7AE
:1009C00084278C932AC0A5E3B0E0E5E3F0E08081C2
:1009D000482F8B81282F30E081E090E0022E02C06A
:1009E000880F991F0A94E2F784278C9316C0A2E31C
:1009F000B0E0E2E3F0E08081482F8B81282F30E0E7
:100A000081E090E0022E02C0880F991F0A94E2F75D
:100A100084278C9302C081E0898389810F900F9095
:100A20000F900F900F90CF91DF910895DF93CF93A8
:100A3000CDB7DEB7AFE5B0E0EFE5F0E080818068EC
:100A40008C93CF91DF910895DF93CF93CDB7DEB72D
:100A5000AFE5B0E0EFE5F0E080818F778C93CF9148
:100A6000DF910895DF93CF93CDB7DEB7A3E5B0E074
:100A7000E3E5F0E080818F7B8C93A3E5B0E0E3E5D4
:100A8000F0E0808188608C93ECE5F0E08AEF808371
:100A9000A9E5B0E0E9E5F0E0808182608C93A3E510
:100AA000B0E0E3E5F0E080818E7F8C93A3E5B0E0D9
:100AB000E3E5F0E0808182608C93A3E5B0E0E3E5BC
:100AC000F0E080818B7F8C93CF91DF910895DF934D
:100AD000CF93CDB7DEB7A3E5B0E0E3E5F0E08081EA
:100AE0008E7F8C93A3E5B0E0E3E5F0E080818D7F1D
:100AF0008C93A3E5B0E0E3E5F0E080818B7F8C93FD
:100B0000CF91DF910895DF93CF930F92CDB7DEB7EA
:100B10008983E2E5F0E0898180830F90CF91DF91B6
:100B20000895DF93CF93CDB7DEB729970FB6F8942A
:100B3000DEBF0FBECDBF809174009AE0692F0E9486
:100B4000AF06892F8987809174009AE0692F0E94EF
:100B5000AF068887809175009AE0692F0E94AF06E2
:100B6000892F8F83809175009AE0692F0E94AF06CC
:100B70008E83809176009AE0692F0E94AF06892FBC
:100B80008D83809176009AE0692F0E94AF068C8356
:100B90001B821A8281E089830E9432050E94160519
:100BA0000E949F00809174009AE0692F0E94AF0616
:100BB000892F8987809174009AE0692F0E94AF067F
:100BC0008887809175009AE0692F0E94AF06892F6F
:100BD0008F83809175009AE0692F0E94AF068E8303
:100BE000809176009AE0692F0E94AF06892F8D834D
:100BF000809176009AE0692F0E94AF068C83209145
:100C00007700309178008A819B81A901481B590B9C
:100C1000CA018430910530F289818130D9F484E0B1
:100C200060E00E9491048D8163E00E94490084E0AD
:100C300061E00E949104888561E00E94490084E09F
:100C400062E00E9491048F8162E00E94490082E08C
:100C500089831DC089818230D1F484E060E00E94E4
:100C600091048C8163E00E94490084E061E00E946D
:100C70009104898561E00E94490084E062E00E945D
:100C800091048E8162E00E94490081E08983809115
:100C90007700909178009B838A8384CF1F920F9274
:100CA0000FB60F9211242F933F934F935F936F933F
:100CB0007F938F939F93AF93BF93EF93FF93DF93B4
:100CC000CF93CDB7DEB781E00E94910082E00E9411
:100CD000910083E00E9491008091770090917800CC
:100CE000019690937800809377008091770090919F
:100CF00078002FE0803A9207F9F4809174008F5FBA
:100D000080937400109278001092770080917400A4
:100D10008C3339F410927400809175008F5F80934A
:100D20007500809175008C3339F4109275008091B4
:100D300076008F5F80937600CF91DF91FF91EF91E6
:100D4000BF91AF919F918F917F916F915F914F91E3
:100D50003F912F910F900FBE0F901F901895991BE8
:100D600079E004C0991F961708F0961B881F7A95A2
:0A0D7000C9F780950895F894FFCFAD
:100D7A003F0006005B004F0066006D007D00070023
:040D8A007F006F0077
:00000001FF
